{
  "_format": "hh-sol-artifact-1",
  "contractName": "RobotPuckNFT",
  "sourceName": "contracts/RobotPuckNFT.sol",
  "abi": [
    {
      "inputs": [],
      "stateMutability": "nonpayable",
      "type": "constructor"
    },
    {
      "anonymous": false,
      "inputs": [
        {
          "indexed": true,
          "internalType": "address",
          "name": "owner",
          "type": "address"
        },
        {
          "indexed": true,
          "internalType": "address",
          "name": "approved",
          "type": "address"
        },
        {
          "indexed": true,
          "internalType": "uint256",
          "name": "tokenId",
          "type": "uint256"
        }
      ],
      "name": "Approval",
      "type": "event"
    },
    {
      "anonymous": false,
      "inputs": [
        {
          "indexed": true,
          "internalType": "address",
          "name": "owner",
          "type": "address"
        },
        {
          "indexed": true,
          "internalType": "address",
          "name": "operator",
          "type": "address"
        },
        {
          "indexed": false,
          "internalType": "bool",
          "name": "approved",
          "type": "bool"
        }
      ],
      "name": "ApprovalForAll",
      "type": "event"
    },
    {
      "anonymous": false,
      "inputs": [
        {
          "indexed": true,
          "internalType": "address",
          "name": "previousOwner",
          "type": "address"
        },
        {
          "indexed": true,
          "internalType": "address",
          "name": "newOwner",
          "type": "address"
        }
      ],
      "name": "OwnershipTransferred",
      "type": "event"
    },
    {
      "anonymous": false,
      "inputs": [
        {
          "indexed": true,
          "internalType": "address",
          "name": "from",
          "type": "address"
        },
        {
          "indexed": true,
          "internalType": "address",
          "name": "to",
          "type": "address"
        },
        {
          "indexed": true,
          "internalType": "uint256",
          "name": "tokenId",
          "type": "uint256"
        }
      ],
      "name": "Transfer",
      "type": "event"
    },
    {
      "inputs": [
        {
          "internalType": "address",
          "name": "to",
          "type": "address"
        },
        {
          "internalType": "uint256",
          "name": "tokenId",
          "type": "uint256"
        }
      ],
      "name": "approve",
      "outputs": [],
      "stateMutability": "nonpayable",
      "type": "function"
    },
    {
      "inputs": [
        {
          "internalType": "address",
          "name": "owner",
          "type": "address"
        }
      ],
      "name": "balanceOf",
      "outputs": [
        {
          "internalType": "uint256",
          "name": "",
          "type": "uint256"
        }
      ],
      "stateMutability": "view",
      "type": "function"
    },
    {
      "inputs": [
        {
          "internalType": "uint256",
          "name": "tokenId",
          "type": "uint256"
        }
      ],
      "name": "getApproved",
      "outputs": [
        {
          "internalType": "address",
          "name": "",
          "type": "address"
        }
      ],
      "stateMutability": "view",
      "type": "function"
    },
    {
      "inputs": [
        {
          "internalType": "address",
          "name": "owner",
          "type": "address"
        },
        {
          "internalType": "address",
          "name": "operator",
          "type": "address"
        }
      ],
      "name": "isApprovedForAll",
      "outputs": [
        {
          "internalType": "bool",
          "name": "",
          "type": "bool"
        }
      ],
      "stateMutability": "view",
      "type": "function"
    },
    {
      "inputs": [],
      "name": "isPublicMintEnabled",
      "outputs": [
        {
          "internalType": "bool",
          "name": "",
          "type": "bool"
        }
      ],
      "stateMutability": "view",
      "type": "function"
    },
    {
      "inputs": [],
      "name": "maxPerWallet",
      "outputs": [
        {
          "internalType": "uint256",
          "name": "",
          "type": "uint256"
        }
      ],
      "stateMutability": "view",
      "type": "function"
    },
    {
      "inputs": [],
      "name": "maxSupply",
      "outputs": [
        {
          "internalType": "uint256",
          "name": "",
          "type": "uint256"
        }
      ],
      "stateMutability": "view",
      "type": "function"
    },
    {
      "inputs": [
        {
          "internalType": "uint256",
          "name": "_quality",
          "type": "uint256"
        }
      ],
      "name": "mint",
      "outputs": [],
      "stateMutability": "payable",
      "type": "function"
    },
    {
      "inputs": [],
      "name": "mintPrice",
      "outputs": [
        {
          "internalType": "uint256",
          "name": "",
          "type": "uint256"
        }
      ],
      "stateMutability": "view",
      "type": "function"
    },
    {
      "inputs": [],
      "name": "name",
      "outputs": [
        {
          "internalType": "string",
          "name": "",
          "type": "string"
        }
      ],
      "stateMutability": "view",
      "type": "function"
    },
    {
      "inputs": [],
      "name": "owner",
      "outputs": [
        {
          "internalType": "address",
          "name": "",
          "type": "address"
        }
      ],
      "stateMutability": "view",
      "type": "function"
    },
    {
      "inputs": [
        {
          "internalType": "uint256",
          "name": "tokenId",
          "type": "uint256"
        }
      ],
      "name": "ownerOf",
      "outputs": [
        {
          "internalType": "address",
          "name": "",
          "type": "address"
        }
      ],
      "stateMutability": "view",
      "type": "function"
    },
    {
      "inputs": [],
      "name": "renounceOwnership",
      "outputs": [],
      "stateMutability": "nonpayable",
      "type": "function"
    },
    {
      "inputs": [
        {
          "internalType": "address",
          "name": "from",
          "type": "address"
        },
        {
          "internalType": "address",
          "name": "to",
          "type": "address"
        },
        {
          "internalType": "uint256",
          "name": "tokenId",
          "type": "uint256"
        }
      ],
      "name": "safeTransferFrom",
      "outputs": [],
      "stateMutability": "nonpayable",
      "type": "function"
    },
    {
      "inputs": [
        {
          "internalType": "address",
          "name": "from",
          "type": "address"
        },
        {
          "internalType": "address",
          "name": "to",
          "type": "address"
        },
        {
          "internalType": "uint256",
          "name": "tokenId",
          "type": "uint256"
        },
        {
          "internalType": "bytes",
          "name": "data",
          "type": "bytes"
        }
      ],
      "name": "safeTransferFrom",
      "outputs": [],
      "stateMutability": "nonpayable",
      "type": "function"
    },
    {
      "inputs": [
        {
          "internalType": "address",
          "name": "operator",
          "type": "address"
        },
        {
          "internalType": "bool",
          "name": "approved",
          "type": "bool"
        }
      ],
      "name": "setApprovalForAll",
      "outputs": [],
      "stateMutability": "nonpayable",
      "type": "function"
    },
    {
      "inputs": [
        {
          "internalType": "string",
          "name": "_baseTokenUrl",
          "type": "string"
        }
      ],
      "name": "setBaseTokenUrl",
      "outputs": [],
      "stateMutability": "nonpayable",
      "type": "function"
    },
    {
      "inputs": [
        {
          "internalType": "bool",
          "name": "_isPublicMintEnabled",
          "type": "bool"
        }
      ],
      "name": "setisPublicMintEnabled",
      "outputs": [],
      "stateMutability": "nonpayable",
      "type": "function"
    },
    {
      "inputs": [
        {
          "internalType": "bytes4",
          "name": "interfaceId",
          "type": "bytes4"
        }
      ],
      "name": "supportsInterface",
      "outputs": [
        {
          "internalType": "bool",
          "name": "",
          "type": "bool"
        }
      ],
      "stateMutability": "view",
      "type": "function"
    },
    {
      "inputs": [],
      "name": "symbol",
      "outputs": [
        {
          "internalType": "string",
          "name": "",
          "type": "string"
        }
      ],
      "stateMutability": "view",
      "type": "function"
    },
    {
      "inputs": [
        {
          "internalType": "uint256",
          "name": "tokenId_",
          "type": "uint256"
        }
      ],
      "name": "tokenURI",
      "outputs": [
        {
          "internalType": "string",
          "name": "",
          "type": "string"
        }
      ],
      "stateMutability": "view",
      "type": "function"
    },
    {
      "inputs": [],
      "name": "totalSupply",
      "outputs": [
        {
          "internalType": "uint256",
          "name": "",
          "type": "uint256"
        }
      ],
      "stateMutability": "view",
      "type": "function"
    },
    {
      "inputs": [
        {
          "internalType": "address",
          "name": "from",
          "type": "address"
        },
        {
          "internalType": "address",
          "name": "to",
          "type": "address"
        },
        {
          "internalType": "uint256",
          "name": "tokenId",
          "type": "uint256"
        }
      ],
      "name": "transferFrom",
      "outputs": [],
      "stateMutability": "nonpayable",
      "type": "function"
    },
    {
      "inputs": [
        {
          "internalType": "address",
          "name": "newOwner",
          "type": "address"
        }
      ],
      "name": "transferOwnership",
      "outputs": [],
      "stateMutability": "nonpayable",
      "type": "function"
    },
    {
      "inputs": [
        {
          "internalType": "address",
          "name": "",
          "type": "address"
        }
      ],
      "name": "walletMints",
      "outputs": [
        {
          "internalType": "uint256",
          "name": "",
          "type": "uint256"
        }
      ],
      "stateMutability": "view",
      "type": "function"
    },
    {
      "inputs": [
        {
          "internalType": "address payable",
          "name": "_to",
          "type": "address"
        }
      ],
      "name": "withdraw",
      "outputs": [],
      "stateMutability": "payable",
      "type": "function"
    },
    {
      "inputs": [],
      "name": "withdrawWallet",
      "outputs": [
        {
          "internalType": "address payable",
          "name": "",
          "type": "address"
        }
      ],
      "stateMutability": "view",
      "type": "function"
    }
  ],
  "bytecode": "0x60806040523480156200001157600080fd5b506040518060400160405280600c81526020017f526f626f745075636b4e465400000000000000000000000000000000000000008152506040518060400160405280600581526020017f52504e4654000000000000000000000000000000000000000000000000000000815250816000908051906020019062000096929190620001cd565b508060019080519060200190620000af929190620001cd565b505050620000d2620000c6620000ff60201b60201c565b6200010760201b60201c565b66470de4df82000060078190555060006008819055506103e86009819055506003600a81905550620002e2565b600033905090565b6000600660009054906101000a900473ffffffffffffffffffffffffffffffffffffffff16905081600660006101000a81548173ffffffffffffffffffffffffffffffffffffffff021916908373ffffffffffffffffffffffffffffffffffffffff1602179055508173ffffffffffffffffffffffffffffffffffffffff168173ffffffffffffffffffffffffffffffffffffffff167f8be0079c531659141344cd1fd0a4f28419497f9722a3daafe3b4186f6b6457e060405160405180910390a35050565b828054620001db906200027d565b90600052602060002090601f016020900481019282620001ff57600085556200024b565b82601f106200021a57805160ff19168380011785556200024b565b828001600101855582156200024b579182015b828111156200024a5782518255916020019190600101906200022d565b5b5090506200025a91906200025e565b5090565b5b80821115620002795760008160009055506001016200025f565b5090565b600060028204905060018216806200029657607f821691505b60208210811415620002ad57620002ac620002b3565b5b50919050565b7f4e487b7100000000000000000000000000000000000000000000000000000000600052602260045260246000fd5b61347f80620002f26000396000f3fe60806040526004361061019c5760003560e01c8063715018a6116100ec578063b88d4fde1161008a578063d5abeb0111610064578063d5abeb0114610598578063e985e9c5146105c3578063f0293fd314610600578063f2fde38b1461063d5761019c565b8063b88d4fde14610509578063b90aebe214610532578063c87b56dd1461055b5761019c565b80638da5cb5b116100c65780638da5cb5b1461046e57806395d89b4114610499578063a0712d68146104c4578063a22cb465146104e05761019c565b8063715018a6146104035780637157de4b1461041a57806385d178f4146104435761019c565b806323b872dd1161015957806351cff8d91161013357806351cff8d9146103425780636352211e1461035e5780636817c76c1461039b57806370a08231146103c65761019c565b806323b872dd146102c557806342842e0e146102ee578063453c2310146103175761019c565b80630116bc2d146101a157806301ffc9a7146101cc57806306fdde0314610209578063081812fc14610234578063095ea7b31461027157806318160ddd1461029a575b600080fd5b3480156101ad57600080fd5b506101b6610666565b6040516101c39190612877565b60405180910390f35b3480156101d857600080fd5b506101f360048036038101906101ee91906122b4565b610679565b6040516102009190612877565b60405180910390f35b34801561021557600080fd5b5061021e61075b565b60405161022b9190612892565b60405180910390f35b34801561024057600080fd5b5061025b6004803603810190610256919061234b565b6107ed565b60405161026891906127f5565b60405180910390f35b34801561027d57600080fd5b506102986004803603810190610293919061224f565b610833565b005b3480156102a657600080fd5b506102af61094b565b6040516102bc9190612b14565b60405180910390f35b3480156102d157600080fd5b506102ec60048036038101906102e79190612149565b610951565b005b3480156102fa57600080fd5b5061031560048036038101906103109190612149565b6109b1565b005b34801561032357600080fd5b5061032c6109d1565b6040516103399190612b14565b60405180910390f35b61035c600480360381019061035791906120e4565b6109d7565b005b34801561036a57600080fd5b506103856004803603810190610380919061234b565b610a8f565b60405161039291906127f5565b60405180910390f35b3480156103a757600080fd5b506103b0610b41565b6040516103bd9190612b14565b60405180910390f35b3480156103d257600080fd5b506103ed60048036038101906103e891906120bb565b610b47565b6040516103fa9190612b14565b60405180910390f35b34801561040f57600080fd5b50610418610bff565b005b34801561042657600080fd5b50610441600480360381019061043c9190612306565b610c13565b005b34801561044f57600080fd5b50610458610c31565b6040516104659190612810565b60405180910390f35b34801561047a57600080fd5b50610483610c57565b60405161049091906127f5565b60405180910390f35b3480156104a557600080fd5b506104ae610c81565b6040516104bb9190612892565b60405180910390f35b6104de60048036038101906104d9919061234b565b610d13565b005b3480156104ec57600080fd5b5061050760048036038101906105029190612213565b610eea565b005b34801561051557600080fd5b50610530600480360381019061052b9190612198565b610f00565b005b34801561053e57600080fd5b506105596004803603810190610554919061228b565b610f62565b005b34801561056757600080fd5b50610582600480360381019061057d919061234b565b610f87565b60405161058f9190612892565b60405180910390f35b3480156105a457600080fd5b506105ad611003565b6040516105ba9190612b14565b60405180910390f35b3480156105cf57600080fd5b506105ea60048036038101906105e5919061210d565b611009565b6040516105f79190612877565b60405180910390f35b34801561060c57600080fd5b50610627600480360381019061062291906120bb565b61109d565b6040516106349190612b14565b60405180910390f35b34801561064957600080fd5b50610664600480360381019061065f91906120bb565b6110b5565b005b600b60009054906101000a900460ff1681565b60007f80ac58cd000000000000000000000000000000000000000000000000000000007bffffffffffffffffffffffffffffffffffffffffffffffffffffffff1916827bffffffffffffffffffffffffffffffffffffffffffffffffffffffff1916148061074457507f5b5e139f000000000000000000000000000000000000000000000000000000007bffffffffffffffffffffffffffffffffffffffffffffffffffffffff1916827bffffffffffffffffffffffffffffffffffffffffffffffffffffffff1916145b80610754575061075382611139565b5b9050919050565b60606000805461076a90612dc5565b80601f016020809104026020016040519081016040528092919081815260200182805461079690612dc5565b80156107e35780601f106107b8576101008083540402835291602001916107e3565b820191906000526020600020905b8154815290600101906020018083116107c657829003601f168201915b5050505050905090565b60006107f8826111a3565b6004600083815260200190815260200160002060009054906101000a900473ffffffffffffffffffffffffffffffffffffffff169050919050565b600061083e82610a8f565b90508073ffffffffffffffffffffffffffffffffffffffff168373ffffffffffffffffffffffffffffffffffffffff1614156108af576040517f08c379a00000000000000000000000000000000000000000000000000000000081526004016108a690612ab4565b60405180910390fd5b8073ffffffffffffffffffffffffffffffffffffffff166108ce6111ee565b73ffffffffffffffffffffffffffffffffffffffff1614806108fd57506108fc816108f76111ee565b611009565b5b61093c576040517f08c379a000000000000000000000000000000000000000000000000000000000815260040161093390612a34565b60405180910390fd5b61094683836111f6565b505050565b60085481565b61096261095c6111ee565b826112af565b6109a1576040517f08c379a000000000000000000000000000000000000000000000000000000000815260040161099890612af4565b60405180910390fd5b6109ac838383611344565b505050565b6109cc83838360405180602001604052806000815250610f00565b505050565b600a5481565b6109df6115ab565b60008173ffffffffffffffffffffffffffffffffffffffff1647604051610a05906127e0565b60006040518083038185875af1925050503d8060008114610a42576040519150601f19603f3d011682016040523d82523d6000602084013e610a47565b606091505b5050905080610a8b576040517f08c379a0000000000000000000000000000000000000000000000000000000008152600401610a8290612974565b60405180910390fd5b5050565b6000806002600084815260200190815260200160002060009054906101000a900473ffffffffffffffffffffffffffffffffffffffff169050600073ffffffffffffffffffffffffffffffffffffffff168173ffffffffffffffffffffffffffffffffffffffff161415610b38576040517f08c379a0000000000000000000000000000000000000000000000000000000008152600401610b2f90612a94565b60405180910390fd5b80915050919050565b60075481565b60008073ffffffffffffffffffffffffffffffffffffffff168273ffffffffffffffffffffffffffffffffffffffff161415610bb8576040517f08c379a0000000000000000000000000000000000000000000000000000000008152600401610baf906129f4565b60405180910390fd5b600360008373ffffffffffffffffffffffffffffffffffffffff1673ffffffffffffffffffffffffffffffffffffffff168152602001908152602001600020549050919050565b610c076115ab565b610c116000611629565b565b610c1b6115ab565b8181600c9190610c2c929190611ee8565b505050565b600d60009054906101000a900473ffffffffffffffffffffffffffffffffffffffff1681565b6000600660009054906101000a900473ffffffffffffffffffffffffffffffffffffffff16905090565b606060018054610c9090612dc5565b80601f0160208091040260200160405190810160405280929190818152602001828054610cbc90612dc5565b8015610d095780601f10610cde57610100808354040283529160200191610d09565b820191906000526020600020905b815481529060010190602001808311610cec57829003601f168201915b5050505050905090565b600b60009054906101000a900460ff16610d62576040517f08c379a0000000000000000000000000000000000000000000000000000000008152600401610d59906128b4565b60405180910390fd5b60075481610d709190612c6f565b3414610db1576040517f08c379a0000000000000000000000000000000000000000000000000000000008152600401610da890612954565b60405180910390fd5b60095481600854610dc29190612be8565b1115610e03576040517f08c379a0000000000000000000000000000000000000000000000000000000008152600401610dfa906129d4565b60405180910390fd5b60095481600e60003373ffffffffffffffffffffffffffffffffffffffff1673ffffffffffffffffffffffffffffffffffffffff16815260200190815260200160002054610e519190612be8565b1115610e92576040517f08c379a0000000000000000000000000000000000000000000000000000000008152600401610e8990612a14565b60405180910390fd5b60005b81811015610ee65760006001600854610eae9190612be8565b905060086000815480929190610ec390612e28565b9190505550610ed233826116ef565b508080610ede90612e28565b915050610e95565b5050565b610efc610ef56111ee565b838361170d565b5050565b610f11610f0b6111ee565b836112af565b610f50576040517f08c379a0000000000000000000000000000000000000000000000000000000008152600401610f4790612af4565b60405180910390fd5b610f5c8484848461187a565b50505050565b610f6a6115ab565b80600b60006101000a81548160ff02191690831515021790555050565b6060610f92826118d6565b610fd1576040517f08c379a0000000000000000000000000000000000000000000000000000000008152600401610fc890612ad4565b60405180910390fd5b600c610fdc83611942565b604051602001610fed9291906127b1565b6040516020818303038152906040529050919050565b60095481565b6000600560008473ffffffffffffffffffffffffffffffffffffffff1673ffffffffffffffffffffffffffffffffffffffff16815260200190815260200160002060008373ffffffffffffffffffffffffffffffffffffffff1673ffffffffffffffffffffffffffffffffffffffff16815260200190815260200160002060009054906101000a900460ff16905092915050565b600e6020528060005260406000206000915090505481565b6110bd6115ab565b600073ffffffffffffffffffffffffffffffffffffffff168173ffffffffffffffffffffffffffffffffffffffff16141561112d576040517f08c379a0000000000000000000000000000000000000000000000000000000008152600401611124906128f4565b60405180910390fd5b61113681611629565b50565b60007f01ffc9a7000000000000000000000000000000000000000000000000000000007bffffffffffffffffffffffffffffffffffffffffffffffffffffffff1916827bffffffffffffffffffffffffffffffffffffffffffffffffffffffff1916149050919050565b6111ac816118d6565b6111eb576040517f08c379a00000000000000000000000000000000000000000000000000000000081526004016111e290612a94565b60405180910390fd5b50565b600033905090565b816004600083815260200190815260200160002060006101000a81548173ffffffffffffffffffffffffffffffffffffffff021916908373ffffffffffffffffffffffffffffffffffffffff160217905550808273ffffffffffffffffffffffffffffffffffffffff1661126983610a8f565b73ffffffffffffffffffffffffffffffffffffffff167f8c5be1e5ebec7d5bd14f71427d1e84f3dd0314c0f7b2291e5b200ac8c7c3b92560405160405180910390a45050565b6000806112bb83610a8f565b90508073ffffffffffffffffffffffffffffffffffffffff168473ffffffffffffffffffffffffffffffffffffffff1614806112fd57506112fc8185611009565b5b8061133b57508373ffffffffffffffffffffffffffffffffffffffff16611323846107ed565b73ffffffffffffffffffffffffffffffffffffffff16145b91505092915050565b8273ffffffffffffffffffffffffffffffffffffffff1661136482610a8f565b73ffffffffffffffffffffffffffffffffffffffff16146113ba576040517f08c379a00000000000000000000000000000000000000000000000000000000081526004016113b190612914565b60405180910390fd5b600073ffffffffffffffffffffffffffffffffffffffff168273ffffffffffffffffffffffffffffffffffffffff16141561142a576040517f08c379a000000000000000000000000000000000000000000000000000000000815260040161142190612994565b60405180910390fd5b611435838383611aef565b6114406000826111f6565b6001600360008573ffffffffffffffffffffffffffffffffffffffff1673ffffffffffffffffffffffffffffffffffffffff16815260200190815260200160002060008282546114909190612cc9565b925050819055506001600360008473ffffffffffffffffffffffffffffffffffffffff1673ffffffffffffffffffffffffffffffffffffffff16815260200190815260200160002060008282546114e79190612be8565b92505081905550816002600083815260200190815260200160002060006101000a81548173ffffffffffffffffffffffffffffffffffffffff021916908373ffffffffffffffffffffffffffffffffffffffff160217905550808273ffffffffffffffffffffffffffffffffffffffff168473ffffffffffffffffffffffffffffffffffffffff167fddf252ad1be2c89b69c2b068fc378daa952ba7f163c4a11628f55a4df523b3ef60405160405180910390a46115a6838383611af4565b505050565b6115b36111ee565b73ffffffffffffffffffffffffffffffffffffffff166115d1610c57565b73ffffffffffffffffffffffffffffffffffffffff1614611627576040517f08c379a000000000000000000000000000000000000000000000000000000000815260040161161e90612a74565b60405180910390fd5b565b6000600660009054906101000a900473ffffffffffffffffffffffffffffffffffffffff16905081600660006101000a81548173ffffffffffffffffffffffffffffffffffffffff021916908373ffffffffffffffffffffffffffffffffffffffff1602179055508173ffffffffffffffffffffffffffffffffffffffff168173ffffffffffffffffffffffffffffffffffffffff167f8be0079c531659141344cd1fd0a4f28419497f9722a3daafe3b4186f6b6457e060405160405180910390a35050565b611709828260405180602001604052806000815250611af9565b5050565b8173ffffffffffffffffffffffffffffffffffffffff168373ffffffffffffffffffffffffffffffffffffffff16141561177c576040517f08c379a0000000000000000000000000000000000000000000000000000000008152600401611773906129b4565b60405180910390fd5b80600560008573ffffffffffffffffffffffffffffffffffffffff1673ffffffffffffffffffffffffffffffffffffffff16815260200190815260200160002060008473ffffffffffffffffffffffffffffffffffffffff1673ffffffffffffffffffffffffffffffffffffffff16815260200190815260200160002060006101000a81548160ff0219169083151502179055508173ffffffffffffffffffffffffffffffffffffffff168373ffffffffffffffffffffffffffffffffffffffff167f17307eab39ab6107e8899845ad3d59bd9653f200f220920489ca2b5937696c318360405161186d9190612877565b60405180910390a3505050565b611885848484611344565b61189184848484611b54565b6118d0576040517f08c379a00000000000000000000000000000000000000000000000000000000081526004016118c7906128d4565b60405180910390fd5b50505050565b60008073ffffffffffffffffffffffffffffffffffffffff166002600084815260200190815260200160002060009054906101000a900473ffffffffffffffffffffffffffffffffffffffff1673ffffffffffffffffffffffffffffffffffffffff1614159050919050565b6060600082141561198a576040518060400160405280600181526020017f30000000000000000000000000000000000000000000000000000000000000008152509050611aea565b600082905060005b600082146119bc5780806119a590612e28565b915050600a826119b59190612c3e565b9150611992565b60008167ffffffffffffffff8111156119fe577f4e487b7100000000000000000000000000000000000000000000000000000000600052604160045260246000fd5b6040519080825280601f01601f191660200182016040528015611a305781602001600182028036833780820191505090505b5090505b60008514611ae357600182611a499190612cc9565b9150600a85611a589190612e71565b6030611a649190612be8565b60f81b818381518110611aa0577f4e487b7100000000000000000000000000000000000000000000000000000000600052603260045260246000fd5b60200101907effffffffffffffffffffffffffffffffffffffffffffffffffffffffffffff1916908160001a905350600a85611adc9190612c3e565b9450611a34565b8093505050505b919050565b505050565b505050565b611b038383611ceb565b611b106000848484611b54565b611b4f576040517f08c379a0000000000000000000000000000000000000000000000000000000008152600401611b46906128d4565b60405180910390fd5b505050565b6000611b758473ffffffffffffffffffffffffffffffffffffffff16611ec5565b15611cde578373ffffffffffffffffffffffffffffffffffffffff1663150b7a02611b9e6111ee565b8786866040518563ffffffff1660e01b8152600401611bc0949392919061282b565b602060405180830381600087803b158015611bda57600080fd5b505af1925050508015611c0b57506040513d601f19601f82011682018060405250810190611c0891906122dd565b60015b611c8e573d8060008114611c3b576040519150601f19603f3d011682016040523d82523d6000602084013e611c40565b606091505b50600081511415611c86576040517f08c379a0000000000000000000000000000000000000000000000000000000008152600401611c7d906128d4565b60405180910390fd5b805181602001fd5b63150b7a0260e01b7bffffffffffffffffffffffffffffffffffffffffffffffffffffffff1916817bffffffffffffffffffffffffffffffffffffffffffffffffffffffff191614915050611ce3565b600190505b949350505050565b600073ffffffffffffffffffffffffffffffffffffffff168273ffffffffffffffffffffffffffffffffffffffff161415611d5b576040517f08c379a0000000000000000000000000000000000000000000000000000000008152600401611d5290612a54565b60405180910390fd5b611d64816118d6565b15611da4576040517f08c379a0000000000000000000000000000000000000000000000000000000008152600401611d9b90612934565b60405180910390fd5b611db060008383611aef565b6001600360008473ffffffffffffffffffffffffffffffffffffffff1673ffffffffffffffffffffffffffffffffffffffff1681526020019081526020016000206000828254611e009190612be8565b92505081905550816002600083815260200190815260200160002060006101000a81548173ffffffffffffffffffffffffffffffffffffffff021916908373ffffffffffffffffffffffffffffffffffffffff160217905550808273ffffffffffffffffffffffffffffffffffffffff16600073ffffffffffffffffffffffffffffffffffffffff167fddf252ad1be2c89b69c2b068fc378daa952ba7f163c4a11628f55a4df523b3ef60405160405180910390a4611ec160008383611af4565b5050565b6000808273ffffffffffffffffffffffffffffffffffffffff163b119050919050565b828054611ef490612dc5565b90600052602060002090601f016020900481019282611f165760008555611f5d565b82601f10611f2f57803560ff1916838001178555611f5d565b82800160010185558215611f5d579182015b82811115611f5c578235825591602001919060010190611f41565b5b509050611f6a9190611f6e565b5090565b5b80821115611f87576000816000905550600101611f6f565b5090565b6000611f9e611f9984612b54565b612b2f565b905082815260208101848484011115611fb657600080fd5b611fc1848285612d83565b509392505050565b600081359050611fd8816133d6565b92915050565b600081359050611fed816133ed565b92915050565b60008135905061200281613404565b92915050565b6000813590506120178161341b565b92915050565b60008151905061202c8161341b565b92915050565b600082601f83011261204357600080fd5b8135612053848260208601611f8b565b91505092915050565b60008083601f84011261206e57600080fd5b8235905067ffffffffffffffff81111561208757600080fd5b60208301915083600182028301111561209f57600080fd5b9250929050565b6000813590506120b581613432565b92915050565b6000602082840312156120cd57600080fd5b60006120db84828501611fc9565b91505092915050565b6000602082840312156120f657600080fd5b600061210484828501611fde565b91505092915050565b6000806040838503121561212057600080fd5b600061212e85828601611fc9565b925050602061213f85828601611fc9565b9150509250929050565b60008060006060848603121561215e57600080fd5b600061216c86828701611fc9565b935050602061217d86828701611fc9565b925050604061218e868287016120a6565b9150509250925092565b600080600080608085870312156121ae57600080fd5b60006121bc87828801611fc9565b94505060206121cd87828801611fc9565b93505060406121de878288016120a6565b925050606085013567ffffffffffffffff8111156121fb57600080fd5b61220787828801612032565b91505092959194509250565b6000806040838503121561222657600080fd5b600061223485828601611fc9565b925050602061224585828601611ff3565b9150509250929050565b6000806040838503121561226257600080fd5b600061227085828601611fc9565b9250506020612281858286016120a6565b9150509250929050565b60006020828403121561229d57600080fd5b60006122ab84828501611ff3565b91505092915050565b6000602082840312156122c657600080fd5b60006122d484828501612008565b91505092915050565b6000602082840312156122ef57600080fd5b60006122fd8482850161201d565b91505092915050565b6000806020838503121561231957600080fd5b600083013567ffffffffffffffff81111561233357600080fd5b61233f8582860161205c565b92509250509250929050565b60006020828403121561235d57600080fd5b600061236b848285016120a6565b91505092915050565b61237d81612d0f565b82525050565b61238c81612cfd565b82525050565b61239b81612d21565b82525050565b60006123ac82612b9a565b6123b68185612bb0565b93506123c6818560208601612d92565b6123cf81612f5e565b840191505092915050565b60006123e582612ba5565b6123ef8185612bcc565b93506123ff818560208601612d92565b61240881612f5e565b840191505092915050565b600061241e82612ba5565b6124288185612bdd565b9350612438818560208601612d92565b80840191505092915050565b6000815461245181612dc5565b61245b8186612bdd565b945060018216600081146124765760018114612487576124ba565b60ff198316865281860193506124ba565b61249085612b85565b60005b838110156124b257815481890152600182019150602081019050612493565b838801955050505b50505092915050565b60006124d0601683612bcc565b91506124db82612f6f565b602082019050919050565b60006124f3603283612bcc565b91506124fe82612f98565b604082019050919050565b6000612516602683612bcc565b915061252182612fe7565b604082019050919050565b6000612539602583612bcc565b915061254482613036565b604082019050919050565b600061255c601c83612bcc565b915061256782613085565b602082019050919050565b600061257f601183612bcc565b915061258a826130ae565b602082019050919050565b60006125a2601483612bcc565b91506125ad826130d7565b602082019050919050565b60006125c5602483612bcc565b91506125d082613100565b604082019050919050565b60006125e8601983612bcc565b91506125f38261314f565b602082019050919050565b600061260b600883612bcc565b915061261682613178565b602082019050919050565b600061262e602983612bcc565b9150612639826131a1565b604082019050919050565b6000612651601683612bcc565b915061265c826131f0565b602082019050919050565b6000612674603e83612bcc565b915061267f82613219565b604082019050919050565b6000612697602083612bcc565b91506126a282613268565b602082019050919050565b60006126ba602083612bcc565b91506126c582613291565b602082019050919050565b60006126dd601883612bcc565b91506126e8826132ba565b602082019050919050565b6000612700602183612bcc565b915061270b826132e3565b604082019050919050565b6000612723600583612bdd565b915061272e82613332565b600582019050919050565b6000612746600083612bc1565b91506127518261335b565b600082019050919050565b6000612769601583612bcc565b91506127748261335e565b602082019050919050565b600061278c602e83612bcc565b915061279782613387565b604082019050919050565b6127ab81612d79565b82525050565b60006127bd8285612444565b91506127c98284612413565b91506127d482612716565b91508190509392505050565b60006127eb82612739565b9150819050919050565b600060208201905061280a6000830184612383565b92915050565b60006020820190506128256000830184612374565b92915050565b60006080820190506128406000830187612383565b61284d6020830186612383565b61285a60408301856127a2565b818103606083015261286c81846123a1565b905095945050505050565b600060208201905061288c6000830184612392565b92915050565b600060208201905081810360008301526128ac81846123da565b905092915050565b600060208201905081810360008301526128cd816124c3565b9050919050565b600060208201905081810360008301526128ed816124e6565b9050919050565b6000602082019050818103600083015261290d81612509565b9050919050565b6000602082019050818103600083015261292d8161252c565b9050919050565b6000602082019050818103600083015261294d8161254f565b9050919050565b6000602082019050818103600083015261296d81612572565b9050919050565b6000602082019050818103600083015261298d81612595565b9050919050565b600060208201905081810360008301526129ad816125b8565b9050919050565b600060208201905081810360008301526129cd816125db565b9050919050565b600060208201905081810360008301526129ed816125fe565b9050919050565b60006020820190508181036000830152612a0d81612621565b9050919050565b60006020820190508181036000830152612a2d81612644565b9050919050565b60006020820190508181036000830152612a4d81612667565b9050919050565b60006020820190508181036000830152612a6d8161268a565b9050919050565b60006020820190508181036000830152612a8d816126ad565b9050919050565b60006020820190508181036000830152612aad816126d0565b9050919050565b60006020820190508181036000830152612acd816126f3565b9050919050565b60006020820190508181036000830152612aed8161275c565b9050919050565b60006020820190508181036000830152612b0d8161277f565b9050919050565b6000602082019050612b2960008301846127a2565b92915050565b6000612b39612b4a565b9050612b458282612df7565b919050565b6000604051905090565b600067ffffffffffffffff821115612b6f57612b6e612f2f565b5b612b7882612f5e565b9050602081019050919050565b60008190508160005260206000209050919050565b600081519050919050565b600081519050919050565b600082825260208201905092915050565b600081905092915050565b600082825260208201905092915050565b600081905092915050565b6000612bf382612d79565b9150612bfe83612d79565b9250827fffffffffffffffffffffffffffffffffffffffffffffffffffffffffffffffff03821115612c3357612c32612ea2565b5b828201905092915050565b6000612c4982612d79565b9150612c5483612d79565b925082612c6457612c63612ed1565b5b828204905092915050565b6000612c7a82612d79565b9150612c8583612d79565b9250817fffffffffffffffffffffffffffffffffffffffffffffffffffffffffffffffff0483118215151615612cbe57612cbd612ea2565b5b828202905092915050565b6000612cd482612d79565b9150612cdf83612d79565b925082821015612cf257612cf1612ea2565b5b828203905092915050565b6000612d0882612d59565b9050919050565b6000612d1a82612d59565b9050919050565b60008115159050919050565b60007fffffffff0000000000000000000000000000000000000000000000000000000082169050919050565b600073ffffffffffffffffffffffffffffffffffffffff82169050919050565b6000819050919050565b82818337600083830152505050565b60005b83811015612db0578082015181840152602081019050612d95565b83811115612dbf576000848401525b50505050565b60006002820490506001821680612ddd57607f821691505b60208210811415612df157612df0612f00565b5b50919050565b612e0082612f5e565b810181811067ffffffffffffffff82111715612e1f57612e1e612f2f565b5b80604052505050565b6000612e3382612d79565b91507fffffffffffffffffffffffffffffffffffffffffffffffffffffffffffffffff821415612e6657612e65612ea2565b5b600182019050919050565b6000612e7c82612d79565b9150612e8783612d79565b925082612e9757612e96612ed1565b5b828206905092915050565b7f4e487b7100000000000000000000000000000000000000000000000000000000600052601160045260246000fd5b7f4e487b7100000000000000000000000000000000000000000000000000000000600052601260045260246000fd5b7f4e487b7100000000000000000000000000000000000000000000000000000000600052602260045260246000fd5b7f4e487b7100000000000000000000000000000000000000000000000000000000600052604160045260246000fd5b6000601f19601f8301169050919050565b7f4d696e74696e67206973206e6f7420656e61626c656400000000000000000000600082015250565b7f4552433732313a207472616e7366657220746f206e6f6e20455243373231526560008201527f63656976657220696d706c656d656e7465720000000000000000000000000000602082015250565b7f4f776e61626c653a206e6577206f776e657220697320746865207a65726f206160008201527f6464726573730000000000000000000000000000000000000000000000000000602082015250565b7f4552433732313a207472616e736665722066726f6d20696e636f72726563742060008201527f6f776e6572000000000000000000000000000000000000000000000000000000602082015250565b7f4552433732313a20746f6b656e20616c7265616479206d696e74656400000000600082015250565b7f496e737566696369656e74207072696365000000000000000000000000000000600082015250565b7f4661696c656420746f2073656e64204574686572000000000000000000000000600082015250565b7f4552433732313a207472616e7366657220746f20746865207a65726f2061646460008201527f7265737300000000000000000000000000000000000000000000000000000000602082015250565b7f4552433732313a20617070726f766520746f2063616c6c657200000000000000600082015250565b7f736f6c64206f7574000000000000000000000000000000000000000000000000600082015250565b7f4552433732313a2061646472657373207a65726f206973206e6f74206120766160008201527f6c6964206f776e65720000000000000000000000000000000000000000000000602082015250565b7f45786365656473206d696e74696e6720616d6f756e7400000000000000000000600082015250565b7f4552433732313a20617070726f76652063616c6c6572206973206e6f7420746f60008201527f6b656e206f776e6572206e6f7220617070726f76656420666f7220616c6c0000602082015250565b7f4552433732313a206d696e7420746f20746865207a65726f2061646472657373600082015250565b7f4f776e61626c653a2063616c6c6572206973206e6f7420746865206f776e6572600082015250565b7f4552433732313a20696e76616c696420746f6b656e2049440000000000000000600082015250565b7f4552433732313a20617070726f76616c20746f2063757272656e74206f776e6560008201527f7200000000000000000000000000000000000000000000000000000000000000602082015250565b7f2e6a6f736e000000000000000000000000000000000000000000000000000000600082015250565b50565b7f546f6b656e2064656f73206e6f74206578697374730000000000000000000000600082015250565b7f4552433732313a2063616c6c6572206973206e6f7420746f6b656e206f776e6560008201527f72206e6f7220617070726f766564000000000000000000000000000000000000602082015250565b6133df81612cfd565b81146133ea57600080fd5b50565b6133f681612d0f565b811461340157600080fd5b50565b61340d81612d21565b811461341857600080fd5b50565b61342481612d2d565b811461342f57600080fd5b50565b61343b81612d79565b811461344657600080fd5b5056fea2646970667358221220c7b976c24fdb3470580b7bd1ae572bb68addc7a52d4d064feafdcec15046053064736f6c63430008040033",
  "linkReferences": {},
  "deployedLinkReferences": {}
}